:100000000C9499000C94BA5D0C94CE580C949B45BA
:100010000C94244C0C94BA5D0C94BA5D0C94BA5DAB
:100020000C94BA5D0C94BA5D0C94BA5D0C94BA5DF4
:100030000C94BA5D0C94BA5D0C94BA5D0C94154F97
:100040000C94BA5D0C94BA5D0C94BA5D0C94BA5DD4
:100050000C94BA5D0C94BA5D0C94A1580C94F84BB6
:100060000C94BA5D0C94BA5D0C94BA5D0C94BA5DB4
:100070000C94BA5D0C9437390C94BA5D0C94F94C1D
:100080000C94224D0C9446550C94BA5D0C94BA5DB8
:100090002800333F80333F339000BBAE339033D1E1
:1000A0008033D1343E00BBFF343E34508034503472
:1000B0006000BC6C3460347E80347E348C00BC7C48
:1000C000348C3499803499352F00BC8A352F357F94
:1000D00080357F35A300BD2035A335A78035A735F2
:1000E000AB00BD4435AB35B38035B335B700BD4843
:1000F00035B735EB8035EB35EF00BD4C35EF3613BA
:10010000803613361500BD503615361C80361C3629
:100110001D0001C1361D362D80362D362E0025C915
:10012000362E362F80362F363000313D3630363879
:10013000800011241FBECFEFCDBFDFE3DEBFE0E9BB
:10014000F0E041E017C0B591A59135912591059159
:1001500007FD0CC095918591EF01F92FE82F0590CF
:100160000D92A217B307D9F7FE0104C01D92A21782
:10017000B307E1F7E133F40731F70E94365D0C94E1
:06018000C100F894FFCF5E
:1001860053756E4D6F6E5475655765645468754644
:100196007269536174004A616E4665624D617241CF
:1001A60070724D61794A756E4A756C417567536513
:0B01B600704F63744E6F764465630069
:0101C100FF3E
:1001C200EF92FF920F931F93CF93DF9300D0CDB79F
:1001D200DEB78C0110921F3680911D36823020F0DE
:1001E200833009F497C07FC28091223680FF7BC2A0
:1001F200C8010E94C85BC80108960E94C85B41E022
:1002020050E064EB73E3C8010E94B13F0F2EF4EBA0
:10021200EF2EF3E3FF2EF02D65EB73E3F701838DF1
:10022200948D0E941F53482F50E065EB73E3C80181
:100232000E94B13F4AE050E069EB73E3C8010E94BB
:10024200B13F42E050E063EC73E3C8010E94B13F6A
:10025200F70161897289FB0101900020E9F731976A
:10026200AF01461B570BC8010E94B13FF7018789B6
:10027200908D892B31F48091C7339091C833892BAB
:1002820051F142E050E067EC73E3C8010E94B13FD4
:100292000F2EF4EBEF2EF3E3FF2EF02DF70143893F
:1002A200548954274527542765897689C8010E94B5
:1002B200B13F42E050E06BEC73E3C8010E94B13FF2
:1002C200F7014789508D542745275427618D728D38
:1002D200C8010E94B13FC8010E946652882309F4F6
:1002E20005C2809122368E7F8093223685E08093EC
:1002F2001F3640E355E760E070E081E195E30E943C
:10030200CB3682E080931D36809120368E7F80939B
:100312002036E9C180912236882309F4E4C1482FAE
:1003220050E080FDE0C180E08F5F682F9A01082EC7
:1003320002C0359527950A94E2F720FFF5CF81E0B8
:1003420090E002C0880F991F6A95E2F7883009F49D
:10035200D3C020F4843009F44BC0C5C1803109F404
:100362004BC1803209F0BFC18091203681FFBBC1F1
:10037200809120368D7F8093203619821A82C8019F
:100382000E94C85BC80108960E94C85B898181707F
:10039200806C8E7F89831A8241E050E0BE016F5FDC
:1003A2007F4FC8010E94B13F41E050E0BE016E5F45
:1003B2007F4FC8010E94B13FC8010E946652882344
:1003C20009F491C1809122368F7D809322368091EB
:1003D200213680618093213640E355E760E070E08A
:1003E2008DEF94E30E94CB3685E080931F367BC16C
:1003F20087E095E30E94EB55C8010E94C85BC801E3
:1004020008960E94C85B41E050E060E674E3C801D0
:100412000E94B13F0F2EF0E6EF2EF4E3FF2EF02DF7
:1004220061E674E3F701868597850E941F53482F82
:1004320050E061E674E3C8010E94B13F42E050E03F
:1004420065E674E3C8010E94B13FF7014581568118
:1004520054274527542767817085C8010E94B13F00
:10046200F70180818670823071F441E050E06AE6E3
:1004720074E3C8010E94B13F41E050E069E674E3D1
:10048200C8010E94B13FE0E6F4E3438550E0648591
:100492007585C8010E94B13F8091223682FD04C059
:1004A2008091603483FF30C1C8010E946652882364
:1004B20009F42AC1809122368B7F80932236809163
:1004C20060348670823009F015C1809121368062D5
:1004D200809321360FC19827892798279C012150A4
:1004E2003109A8EEB3E00E94DD58AB01BC0187E000
:1004F20095E30E94CB36F7C0C8010E94C85BC801D1
:1005020008960E94C85B41E050E060E774E3C801CE
:100512000E94B13F0F2EF0E7EF2EF4E3FF2EF02DF5
:1005220061E774E3F701848595850E941F53482F84
:1005320050E061E774E3C8010E94B13F41E050E03E
:1005420066E774E3C8010E94B13F41E050E065E70D
:1005520074E3C8010E94B13F42E050E067E774E3F0
:10056200C8010E94B13FF7014781508554274527B2
:10057200542761857285C8010E94B13F41E050E075
:100582006BE774E3C8010E94B13FC8010E94665242
:100592008823D1F080912236877F80932236809102
:1005A200213684608093213680912036877F809324
:1005B200203640E355E760E070E083EF94E30E9469
:1005C200CB3685E080931F368091C1339091C23340
:1005D200009709F488C09827892798279C01215001
:1005E2003109A8EEB3E00E94DD58AB01BC0187E0FF
:1005F20095E30E94CB3677C0C8010E94C85BC80150
:1006020008960E94C85B41E050E06CE874E3C801C0
:100612000E94B13F0F2EFCE8EF2EF4E3FF2EF02DE7
:100622006DE874E3F701838594850E941F53482F78
:1006320050E06DE874E3C8010E94B13F41E050E030
:1006420062E974E3C8010E94B13F41E050E061E910
:1006520074E3C8010E94B13F42E050E063E974E3F1
:10066200C8010E94B13FF7014781508554274527B1
:10067200542761857285C8010E94B13FC8010E945A
:1006820066528823D1F0809122368F7E8093223663
:1006920080912136886080932136809120368F7E2A
:1006A2008093203640E355E760E070E089EE94E302
:1006B2000E94CB3685E080931F368091C1339091A2
:1006C200C233009781F09827892798279C012150EF
:1006D2003109A8EEB3E00E94DD58AB01BC0187E00E
:1006E20095E30E94CB3680911D3611C086E080933F
:1006F2001F36F9CF85E080931F368091C1339091E8
:10070200C233009781F3E7CE10921D36ECCF0F90E3
:100712000F90DF91CF911F910F91FF90EF9008956D
:100722002F923F924F925F926F927F928F929F92FF
:10073200AF92BF92CF92DF92EF92FF920F931F93ED
:10074200CF93DF93CDB7DEB7C455D109CDBFDEBF9E
:100752008B0169017A01813411F08435E9F424E0D6
:1007620030E0AE014F5F5F4FC701B6010E94BD414D
:10077200811147C28A8126968FAF2697E0910D3666
:10078200F0910E36309709F43CC2AE014B5B5F4FDD
:1007920061E08981099535C28234E9F424E030E0D0
:1007A200AE014F5F5F4FC701B6010E94BD4181118B
:1007B20028C28A8126968FAF2697E0910D36F09156
:1007C2000E36309709F41DC2AE014B5B5F4F62E0FB
:1007D2008981099516C2833409F077C02CE030E094
:1007E200AE014B5B5F4FC701B6010E94BD41811153
:1007F20008C22F968FAD2F9788230CF441C0482F43
:10080200082E000C550B2E962FAD2E973BE023039E
:10081200F0011124EE56FE4C9185349FF001359F74
:10082200F00D1124EE56FE4C918791E0908761966F
:100832002EAD3FAD61972850310926833783209131
:100842000F3630911036B9016F5F7F4F29F06093F8
:100852000F367093103606C02E5F3F4F20930F362F
:10086200309310369BE0949FF001959FF00D112478
:10087200EE56FE4C20910F3630911036248335838C
:10088200898382E090E08A839B8329968EAD9FAD17
:1008920029978C839D832D968CAD9DADAEADBFAD5A
:1008A2002D978E839F83A887B987E0910D36F091AB
:1008B2000E36309709F4A5C1AE014F5F5F4F64E079
:1008C2002E968FAD2E9709959CC1843411F08B34EE
:1008D20071F524E030E0AE014F5F5F4FC701B60112
:1008E2000E94BD4181118DC1898126968FAF2697C5
:1008F2009A8127969FAF279791110CC02BE0820215
:10090200F0011124EE56FE4C2B813C812850310916
:1009120026833783E0910D36F0910E36309709F435
:1009220070C1AE014B5B5F4F65E009956AC18A34C5
:10093200E1F424E430E0AE014F5F5F4FC701B6013E
:100942000E94BD4181115DC1E0910B36F0910C36E0
:10095200309709F456C125964CAD5DAD6EAD7FADB5
:100962002597CE01019609954CC1863451F0883401
:1009720069F08D3409F0DDC00F2EF6E0AF2EF02DB8
:1009820009C00F2EF6E0AF2EF02D04C00F2EF9E0B5
:10099200AF2EF02D20E130E0AE014B5B5F4FC7017F
:1009A200B6010E94BD4181112CC16296BFAC629713
:1009B20065962EAD3FAD65976B2D0B2C000C770B1A
:1009C2008B2D9BE08902F0011124EE56FE4C12861B
:1009D2002F968EAD9FAD2F976196AEADBFAD61974D
:1009E20029964EAD5FAD299749875A872D964CAC13
:1009F2005DAC6EAC7FAC2D974B865C866D867E8639
:100A0200448155812417350709F0FBC018161906D1
:100A12000CF07DC04C018017910708F078C0009758
:100A220009F4EFC02BE0269FF001279FF00D11245F
:100A3200EE56FE4C20813181232B09F4E2C02BE0DB
:100A4200269FF001279FF00D1124EE56FE4C2281C5
:100A52003381232B09F4D5C02BE0269FF001279F79
:100A6200F00D1124EE56FE4C2085213009F0C9C04C
:100A7200CA0EDB1EE11CF11C8D839E832BE0269F98
:100A8200C001279F900D1124FC01EE56FE4C3F0140
:100A92002F01F2E04F0E511C130128E0220E311CEF
:100AA200F201008111818016910608F48401F3019C
:100AB200408151819801C701B6010E94BD41811157
:100AC200A0C0F3018081918189839A830B831C8367
:100AD2008D819E81801B910B8D839E83E0910D36CB
:100AE200F0910E36309731F0AE014F5F5F4F6A2DB5
:100AF2008B2D0995C00ED11EE11CF11CF1018081E4
:100B0200882309F47EC0801A910A51F67AC08B8339
:100B12009C8319821A82E0910D36F0910E3630973D
:100B220009F46FC0AE014F5F5F4F6A2D8B2D09959F
:100B320068C0853431F0873431F08C3481F517E0A8
:100B420003C017E001C018E028E030E0AE014F5FBB
:100B52005F4FC701B6010E94BD41811152C0898118
:100B62004D815E812B813C8127962EAF3FAF279727
:100B72002BE08202F0011124EE56FE4C24813581D5
:100B820042175307F1F5E0910D36F0910E3630978A
:100B9200C1F1AE014B5B5F4F612F099532C08235C7
:100BA20081F524E130E0AE014F5F5F4FC701B6012E
:100BB2000E94BD41811125C04D815E816F81788582
:100BC2008091C3359091C435A091C535B091C63599
:100BD200481759076A077B0781F4E0910936F091BB
:100BE2000A36309751F029853A854B855C856981B3
:100BF2007A818B819C81098909951092093610921C
:100C02000A36CC5ADF4FCDBFDEBFDF91CF911F91A5
:100C12000F91FF90EF90DF90CF90BF90AF909F9099
:100C22008F907F906F905F904F903F902F9008959C
:100C3200AF92BF92CF92DF92EF92FF920F931F93E8
:100C4200CF93DF9380910928982F957051F4E0910A
:100C52005034F091513463EA74E38DEA94E30995D8
:100C62002DC083FD2BC0E0915C34F0915D34099579
:100C7200811124C08091092881FD20C080EB93E678
:100C82009F938F9383E08F9384E08F930E946F44AE
:100C920040E157E260E070E08DEA94E30E94CB36D7
:100CA20080910E288F7780930E2880910928886082
:100CB200809309280F900F900F900F9080910E282B
:100CC20081FD0BC0E0915C34F0915D34099588237D
:100CD20009F4C6C10E94875DC3C10E94845DDC0124
:100CE2005096ED91FC9151978081082E000C990B42
:100CF2000E94215BC82F0E94F8516B017C010E9467
:100D0200725B672B682B692B09F0A2C186ED93E613
:100D12009F938F9383E08F9384E08F930E946F441D
:100D22000F900F900F900F9032C080910E28806824
:100D320080930E288091A7359091A835A091A9356E
:100D4200B091AA35C816D906EA06FB0601F10E943F
:100D52008A5D1F928F931F92CF93FF92EF92DF9241
:100D6200CF9280EF93E69F938F931F9283E08F93AE
:100D72000E946F44C092A735D092A835E092A9355F
:100D8200F092AA35EDB7FEB73C96EDBFFEBFC2307A
:100D920009F466C130F0C33009F1C43009F052C120
:100DA2005FC10E944B4D60910A2870910B2880917F
:100DB2000C2890910D28E0915234F091533409950A
:100DC2008F3F31F480910E28846080930E2848C1B1
:100DD20080910E28806180930E2842C1E0915E349A
:100DE200F0915F340995882331F0E0915434F09109
:100DF2005534099535C10E94845DEC010E94410A77
:100E0200873009F472C00E948D5D8230D9F030F4CF
:100E1200882309F47DC0813031F058C0833061F1FC
:100E22008430C9F153C082E294E69F938F9383E0AA
:100E32008F9384E08F930E946F440F900F900F90D6
:100E42000F9066C00E94905D26EE3CE53F932F9383
:100E520082958F701F928F938CE394E69F938F936A
:100E620083E08F9384E08F930E946F448DB79EB787
:100E720008968DBF9EBF4CC080E694E69F938F93E9
:100E820083E08F9384E08F930E946F440F900F90C2
:100E92000F900F903DC00E94725B0E947B5B0E948C
:100EA200845B0E9413569F938F9382E894E69F93EC
:100EB2008F9381E08F9384E08F930E946F440F9011
:100EC2000F900F900F900F900F9022C084EA94E63B
:100ED2009F938F9383E08F9384E08F930E946F445C
:100EE2000F900F900F900F9013C01F9287E08F9377
:100EF20082EC94E69F938F9383E08F9384E08F93A9
:100F02000E946F440F900F900F900F900F900F90D0
:100F1200CE010E94E1000E948D5D853019F086307D
:100F2200A9F022C00E94E15C9F938F938EE195E627
:100F32009F938F931F9284E08F930E946F440F9030
:100F42000F900F900F900F900F900EC088E395E6D0
:100F52009F938F9383E08F9384E08F930E946F44DB
:100F62000F900F900F900F900E94845DDC011C96F1
:100F7200AD90BC901D970E94845DFC010085118597
:100F82000E94845DDC015096ED91FC915197808125
:100F920020E030E0A501B801082E000C990B0E9458
:100FA200D53AE0915C34F0915D340995882309F4D7
:100FB20057C080910E288F7E8B7F80930E288DEAFA
:100FC20094E30E94EB5583EA94E30E94EB558091EF
:100FD20009288B7F877F8093092884FF05C0E091D1
:100FE2005634F091573409950E94F85161317E4090
:100FF20081059105ACF10E948A5D1F928F931F9229
:1010020083E08F93FF92EF92DF92CF922DE435E649
:101012003F932F938F9384E08F930E946F44E091CC
:101022005A34F0915B340995E889F9898081082E58
:10103200000C990B0E94CD4EEDB7FEB73C96EDBF6A
:10104200FEBF0EC080910E28846080930E2808C0D7
:10105200E0915C34F0915D340995811166CE97CEB2
:1010620064EF71E080E090E0DF91CF911F910F91EA
:0E107200FF90EF90DF90CF90BF90AF90089569
:10108000CF92DF92EF92FF920F931F930E94A25193
:101090000E9431380E948A2E0E94B15460E080E0A4
:1010A0000E94855586E194E70E94BF5862E084E182
:1010B0000E94855586E294E70E94BF5863E082E172
:1010C0000E94855582E394E70E94BF5864E086E160
:1010D0000E9485558FE394E70E94BF5866E080E048
:1010E0000E9485558CE494E70E94BF580E94AF553A
:1010F0008AE294E30E94D25C8AE294E30E94225D39
:101100000E941759811113C08DE594E79F938F9327
:1011100083E08F9384E08F930E946F4480910E2828
:10112000846080930E280F900F900F900F908AE2AA
:1011300094E30E94F43F80937F298823A9F1909142
:101140000E28946090930E28813E19F0823E81F023
:101150001DC08CE794E79F938F9383E08F9384E087
:101160008F930E946F440F900F900F900F901CC0B0
:1011700083EB94E79F938F9383E08F9384E08F9327
:101180000E946F440F900F900F900F9085EE94E7A0
:101190009F938F9383E08F9384E08F930E946F449B
:1011A0000F900F900F900F908AE294E30E94D25C10
:1011B0008AE294E30E94E85B0E94CF4C0E94D633FF
:1011C00048EE53E060E070E08BE195E30E94CB369F
:1011D00040E257E466E170E0C12CD12C760100E0DA
:1011E00010E0980186B38074080F111D211D311D78
:1011F00086B38072C80ED11CE11CF11C415051090C
:101200006109710979F7003913422B40310508F063
:10121000BEC080E9C81683E2D8068BE0E806F10478
:1012200008F06CC089E0E9E0F5E7ACE7B8E20190CE
:101230000D928A95E1F78AE0E2E1F5E7ADE9B8E2DF
:1012400001900D928A95E1F71F9282E08F938CE1D5
:1012500095E79F938F9382EF98E29F938F930E94DD
:101260000850EAE9F5E30F2EFAEFCF2ED12CE12C4E
:10127000F12CF02DC082D182E282F382C482D58229
:10128000E682F782CF010E949F18E1E9F5E3C08270
:10129000D182E282F382C482D582E682F782CF01D4
:1012A0000E949F18E8E8F5E31082118212821382EF
:1012B000C12CD12C7601C394C482D582E682F782F8
:1012C000CF010E949F18EFE7F5E31082118212828E
:1012D0001382C482D582E682F782CF010E949F18D2
:1012E00080910E2888608F7D806480930E280F90F7
:1012F0000F900F900F900F900F90AAC0EAE9F5E3BE
:1013000084EF91E0A0E0B0E080839183A283B38377
:1013100084839583A683B783CF010E949F18E1E958
:10132000F5E31082118212821382C12CD12C760136
:10133000C394C482D582E682F782CF010E949F18AF
:10134000E8E8F5E31082118212821382C482D5820A
:10135000E682F782CF010E949F18EFE7F5E3108243
:10136000118212821382C482D582E682F782CF0173
:101370000E949F1880910E28877F80628F7B8093C8
:101380000E2860E08CE29DE50E94A04B44C0EAE993
:10139000F5E38AEF90E0A0E0B0E080839183A28340
:1013A000B38384839583A683B783CF010E949F185C
:1013B000E1E9F5E31082118212821382C12CD12C53
:1013C0007601C394C482D582E682F782CF010E945F
:1013D0009F18E8E8F5E31082118212821382C4821A
:1013E000D582E682F782CF010E949F18EFE7F5E3EE
:1013F0001082118212821382C482D582E682F78221
:10140000CF010E949F1880910E2888608F7D8F7B6E
:1014100080930E281DC00E9431388FE498E29F937C
:101420008F9388E793E79F938F938BE199E29F9344
:101430008F930E9408506BE87BE28BE199E20E9457
:1014400063560F900F900F900F900F900F9012C057
:1014500061E08CE29DE50E94A04B8AE294E30E9449
:10146000F45A44E650E060E070E085E295E30E94C3
:10147000CB36D1CF1F910F91FF90EF90DF90CF909F
:021480000895CD
:10148200CF92DF92EF92FF920F931F93CF93DF934E
:10149200CDB7DEB72997CDBFDEBF8C0110921F36C4
:1014A20019828091203682FD08C08091203683FD0A
:1014B20004C08091203684FF05C010921D36C801F9
:1014C2000E946157F80186859785892B19F48091CE
:1014D2001D36C0C180911D36823039F0833009F447
:1014E2007CC0813009F09FC1A1C18091203680FD6E
:1014F2006BC0C090C133D090C23381E195E30E94AA
:10150200EB557801F8E0EF0EF11C41E050E0BE012E
:101512006F5F7F4FC7010E94E43E9C019981907FDB
:10152200903209F041C08E010E5F1F4F84E0F80136
:1015320011928A95E9F741E050E0B801C7010E9493
:10154200593E41E050E0BE016D5F7F4FC7010E94EE
:10155200593EB8016E5F7F4F41E050E0C7010E94E3
:10156200593E41E050E0BE016B5F7F4FC7010E94D0
:10157200593E8D81882309F45CC166C1809122366F
:10158200806280932236960121503109A8EEB3E0A1
:101592000E94DD58AB01BC0187E095E30E94CB3687
:1015A20084E080931F3642C182E080931F36898196
:1015B20080931E362093E5353093E63510921D3622
:1015C200C8010E94615732C110921D36C8010E94A3
:1015D200615781E080931F3629C17801F8E0EF0E50
:1015E200F11C41E050E0BE016F5F7F4FC7010E94D6
:1015F200E43E898182958F70893099F138F4833085
:1016020009F4D7C0843009F4D8C010C18B3009F472
:1016120080C08D3009F00AC18091213684FF06C155
:101622008091203682FD02C18DEF94E30E94EB553A
:101632001A821B8241E050E0BE016E5F7F4FC701FC
:101642000E94593E8091C1339091C233892B29F077
:1016520080912236806280932236C7010E94C85B45
:10166200E5C08091213682FFE1C08091203683FD62
:10167200DDC083EF94E30E94EB55BE016E5F7F4FA6
:1016820088E0FB0111928A95E9F741E050E0C70139
:101692000E94593E41E050E0BE016D5F7F4FC7019D
:1016A2000E94593E41E050E0BE01695F7F4FC70191
:1016B2000E94593E41E050E0BE01685F7F4FC70182
:1016C2000E94593E988580917534981312C09F816B
:1016D2008091763498130FC041E050E0BE01675FFD
:1016E2007F4FC7010E94593E8985803831F013E04F
:1016F20005C010E003C010E001C010E08091213667
:101702008B7F80932136C7010E94C85B10931D36E0
:101712008DC08091213683FF89C08091203684FD5F
:1017220085C089EE94E30E94EB55BE016E5F7F4F48
:1017320084E0FB0111928A95E9F741E050E0C7018C
:101742000E94593E41E050E0BE016D5F7F4FC701EC
:101752000E94593E8B818230E1F441E050E0BE01AB
:101762006C5F7F4FC7010E94593E41E050E0BE01CD
:101772006B5F7F4FC7010E94593E9D8180919134DA
:10178200981309C09C8180919234981731F010E02F
:1017920005C010E003C010E001C013E080912136C3
:1017A200877F80932136C7010E94C85B10931D3644
:1017B2003DC0C8010E94741C39C08E010E5F1F4FCC
:1017C20084E0F80111928A95E9F741E050E0B8010E
:1017D200C7010E94593E41E050E0BE016D5F7F4F5C
:1017E200C7010E94593E41E050E0BE016B5F7F4F4E
:1017F200C7010E94593EB8016E5F7F4F41E050E041
:10180200C7010E94593E9C818091693498130EC091
:101812009D8180916A34981309C0809121368F7D11
:101822008093213603C087E080931D3680911D3658
:1018320011C0DC24CD24DC2483E080931D36C11446
:10184200D10409F4ADCE9ACE10921D3683E0809376
:101852001F36ECCF2996CDBFDEBFDF91CF911F910E
:0C1862000F91FF90EF90DF90CF90089561
:10186E00ABE0B0E0EDE3FCE00C949C536C017B012B
:10187E008A01FC0116821782838181FFCCC1CE01C1
:10188E0001963C01F6019381F70193FD859193FF3B
:10189E0081917F01882309F4BAC1853239F493FD11
:1018AE00859193FF81917F01853229F4B60190E0F5
:1018BE000E942445E7CF912C212C312CFFE1F3150A
:1018CE00D8F08B3279F038F4803279F08332A1F48B
:1018DE00232D20611DC08D3261F0803369F4232DDC
:1018EE00216016C0832D8260382EE32DE4603E2EDB
:1018FE002AC0F32DF8601DC037FC2DC020ED280F37
:10190E002A3040F08E32B9F436FC81C1232D20648A
:10191E00322E19C036FE06C08AE0989E200D112484
:10192E00922E11C0EAE02E9E200D1124222EF32DB0
:10193E00F0623F2E08C08C3621F4832D8068382E3D
:10194E0002C0883641F4F70193FD859193FF819192
:10195E007F018111B3CF982F9F7D9554933028F43A
:10196E000C5F1F4F9FE399830DC0833631F0833791
:10197E0071F0833509F059C021C0F8018081898347
:10198E000E5F1F4F88248394912C530113C028019E
:10199E00F2E04F0E511CF801A080B18036FE03C05C
:1019AE00692D70E002C06FEF7FEFC5010E945D5A96
:1019BE004C018201F32DFF773F2E16C0280122E045
:1019CE00420E511CF801A080B18036FE03C0692D75
:1019DE0070E002C06FEF7FEFC5010E94525A4C01BA
:1019EE00F32DF0683F2E820133FC1BC0822D90E058
:1019FE0088169906B0F4B60180E290E00E94244564
:101A0E002A94F4CFF50137FC859137FE81915F0161
:101A1E00B60190E00E94244521102A9421E0821AFA
:101A2E0091088114910471F7E8C0843611F089365B
:101A3E0041F5F80137FE07C0608171818281938183
:101A4E000C5F1F4F08C060817181072E000C880B40
:101A5E00990B0E5F1F4FF32DFF763F2E97FF09C098
:101A6E0090958095709561957F4F8F4F9F4FF06841
:101A7E003F2E2AE030E0A3010E94B635882E86184C
:101A8E0045C0853731F4232D2F7EB22E2AE030E06B
:101A9E0025C0932D997FB92E8F36C1F018F4883555
:101AAE0079F0B5C0803719F0883721F0B0C0E92F32
:101ABE00E061BE2EB4FE0DC0FB2DF460BF2E09C03A
:101ACE0034FE0AC0292F2660B22E06C028E030E070
:101ADE0005C020E130E002C020E132E0F801B7FE9F
:101AEE0007C060817181828193810C5F1F4F06C098
:101AFE006081718180E090E00E5F1F4FA3010E9414
:101B0E00B635882E8618FB2DFF773F2E36FE0DC07C
:101B1E00232D2E7FA22E891458F434FE0BC032FCD6
:101B2E0009C0832D8E7EA82E05C0B82CA32C03C011
:101B3E00B82C01C0B92CA4FE0FC0FE01E80DF11D9A
:101B4E008081803321F49A2D997EA92E09C0A2FEA0
:101B5E0006C0B394B39404C08A2D867809F0B3946A
:101B6E00A3FC11C0A0FE06C0B21488F4280C922C5F
:101B7E009B180EC0B21460F4B60180E290E00E9491
:101B8E002445B394F7CFB21418F42B1802C0982C36
:101B9E00212CA4FE10C0B60180E390E00E942445E3
:101BAE00A2FE17C0A1FC03C088E790E002C088E542
:101BBE0090E0B6010CC08A2D867859F0A1FE02C0C5
:101BCE008BE201C080E2A7FC8DE2B60190E00E949C
:101BDE002445891438F4B60180E390E00E94244530
:101BEE009A94F7CF8A94F301E80DF11D8081B60126
:101BFE0090E00E9424458110F5CF222009F442CEB8
:101C0E00B60180E290E00E9424452A94F6CFF601B8
:101C1E008681978102C08FEF9FEF2B96E2E10C94A5
:021C2E00FD5364
:101C3000776966695F63623A204D324D5F57494666
:101C4000495F524553505F434F4E5F535441544593
:101C50005F4348414E4745443A20444953434F4E21
:101C60004E45435445441B5B306D00776966695FA0
:101C700063623A204D324D5F574946495F524553A2
:101C8000505F434F4E5F53544154455F4348414E6C
:101C90004745443A20434F4E4E45435445441B5B11
:101CA000306D00434C4F55443A2044484350204344
:101CB0004F4E461B5B306D0025640025731B5B3067
:101CC0006D00534F46542041503A20436F6E6E656D
:101CD00063742043726564656E7469616C7320730C
:101CE000656E7420746F2057494E431B5B306D0046
:101CF0002A2E706F6F6C2E6E74702E6F7267004E8E
:101D0000545020736572766572206E616D653A205D
:101D100025731B5B306D0057494E4320646F776E0F
:101D20006C6F6164206D6F6465206661696C6564C9
:101D3000202D205468696E67204E616D65206361B7
:101D40006E6E6F74206265206F627461696E656487
:101D50001B5B306D0057494E4320696E20646F77DE
:101D60006E6C6F6164206D6F64651B5B306D005439
:101D700068696E67204E616D65206973206E6F74AF
:101D80002070726573656E742C206572726F72209C
:101D9000747970652025642C2075736572206465E4
:101DA00066696E6564207468696E672049442069BD
:101DB0007320757365641B5B306D005468696E67D2
:101DC000204E616D6520726561642066726F6D20C2
:101DD000746865206465766963652069732025737E
:101DE0001B5B306D0057494E4320646F776E6C6FFC
:101DF0006164206D6F6465206661696C6564202D87
:101E00002041575320486F73742055524C20636112
:101E10006E6E6F74206265206F627461696E6564B6
:101E20001B5B306D004572726F7220726561646970
:101E30006E672041575320456E64706F696E742041
:101E400066726F6D2057494E431B5B306D004157E2
:101E50005320456E64706F696E74206973206E6FD5
:101E6000742070726573656E7420696E2057494ED8
:101E7000432C206569746865722072652D70726FDD
:101E8000766973696F6E206F72206D6963726F631C
:101E9000686970204157532073616E64626F7820C7
:101EA000656E64706F696E742077696C6C20626512
:101EB00020757365641B5B306D0041575320456E80
:101EC00064706F696E7420726561642066726F6DF4
:101ED0002057494E432069732025731B5B306D00EA
:101EE000574946493A2077696669206572726F7270
:101EF000203D2025641B5B306D00574946493A2040
:101F0000536F667420415020436F6E6E656374207A
:101F10004661696C7572651B5B306D00534F4654AA
:101F20002041503A204E657720436F6E6E65637492
:101F30002063726564656E7469616C732073656E8D
:101F4000742057494E431B5B306D00574946493A50
:101F500020446973636F6E6E6563742066726F6D83
:101F6000204150206572726F72203D2025641B5BFA
:101F7000306D004D4348502E494F542E4143434548
:101F80005353504F494E5400000000000000000021
:101F90000000000031323334353637383930000034
:101FA00000000000000000000000000000000041F0
:101FB000434345535320504F494E54204D4F4445C1
:101FC00020666F722070726F766973696F6E696ECA
:061FD000671B5B306D0091
:101FD600000000000000000000005F00000000009C
:101FE600000007000700000000147F147F140000A3
:101FF60000242A7F2A1200000023130864620000CE
:10200600003649552250000000000503000000007C
:10201600001C2241000000000041221C00000000BC
:1020260000082A1C2A0800000008083E08080000CC
:1020360000A0600000000000000808080808000072
:10204600006060000000000000201008040200008C
:10205600003E5149453E00000000427F400000001E
:1020660000625149494600000022414949360000B4
:10207600001814127F10000000274545453900005E
:10208600003C4A494930000000017109050300007F
:10209600003649494936000000064949291E000014
:1020A60000003636000000000000AC6C00000000A6
:1020B6000008142241000000001414141414000037
:1020C6000041221408000000000201510906000028
:1020D60000324979413E0000007E0909097E000070
:1020E600007F494949360000003E41414122000037
:1020F600007F4141221C0000007F49494941000000
:10210600007F090909010000003E414151720000AB
:10211600007F0808087F000000417F4100000000A2
:10212600002040413F010000007F081422410000CA
:10213600007F404040400000007F020C027F00000C
:10214600007F0408107F0000003E4141413E000030
:10215600007F090909060000003E4151215E00008A
:10216600007F091929460000002649494932000026
:102176000001017F01010000003F4040403F000098
:10218600001F2040201F0000003F4038403F000055
:1021960000631408146300000003047804030000BD
:1021A6000061514945430000007F414100000000A5
:1021B60000020408102000000041417F00000000DA
:1021C600000402010204000000808080808000007C
:1021D600000102040000000000205454547800005E
:1021E600007F48444438000000384444280000007A
:1021F60000384444487F0000003854545418000006
:1022060000087E09020000000018A4A4A47C0000B7
:10221600007F08040478000000007D000000000034
:102226000080847D00000000007F1028440000002C
:1022360000417F4000000000007C04180478000084
:10224600007C08047C00000000384444380000008C
:1022560000FC24241800000000182424FC000000C0
:1022660000007C08040000000048545424000000CC
:1022760000047F4400000000003C40407C00000059
:10228600001C2040201C0000003C4030403C000068
:102296000044281028440000001CA0A07C00000078
:1022A600004464544C44000000083641000000001D
:1022B60000007F000000000000413608000000001A
:1022C60000020101020100000002050502000000F3
:1022D600434C4F55443A206D71747442726F6B656E
:1022E600724950203D2028256C752E256C752E25AB
:1022F6006C752E256C75291B5B306D00434C4F5554
:10230600443A205265736574207461736B1B5B30AD
:102316006D00434C4F55443A207265696E69741BD3
:102326005B306D00436F6E6E656374696E67207413
:102336006F2041502077697468206E65772063723C
:102346006564656E7469616C731B5B306D00436F09
:102356006E6E656374696E6720746F2041502077D6
:1023660069746820746865206C6173742075736580
:10237600642063726564656E7469616C731B5B309F
:102386006D00434C4F55443A20436C6F7564207280
:10239600657365742074696D657220697320646560
:1023A6006C657465641B5B306D004D5154543A2066
:1023B6004D5154542072657365742074696D65724D
:1023C60020697320637265617465641B5B306D0000
:1023D600434C4F55443A2074696D65206E6F7420E6
:1023E60072656164791B5B306D00434C4F55443A0E
:1023F60020557074696D6520256C757320536F6365
:102406006B657453746174652028256429204D51C9
:10241600545420282564291B5B306D004D515454BB
:102426003A20434F4E4E41434B2054494D454F555C
:10243600541B5B306D004D5154543A20444953436C
:102446004F4E4E45435420282564292066726F6DF1
:1024560020282564291B5B306D004D5154543A20C9
:10246600434F4E4E41434B20444953434F4E4E45F6
:1024760043544544203A281B5B306D004D5154545B
:102486003A20434F4E4E41434B20434F4E4E454319
:102496005445442061742025731B5B306D004D51FB
:1024A60054543A205354415445204552524F525F9A
:1024B6004F4343555245441B5B306D004D515454B8
:1024C6003A205061636B657420747970653A2025F3
:1024D600642E204D51545420436C69656E742064FB
:1024E6006F6573206E6F742063757272656E746C9F
:1024F6007920737570706F727420746865207265C8
:10250600636569766564207061636B6574207479B0
:1025160070652E1B5B306D004D5154543A20736527
:102526006E64726573756C7420282564291B5B3094
:102536006D004D5154543A2053656E6420457272B5
:102546006F721B5B306D004D5154543A20436F6ED1
:102556006E656374696F6E20616765642C205570C3
:1025660074696D6520256C757320536F636B657494
:1025760053746174652028256429204D51545420D4
:10258600282564291B5B306D00434C4F55443A2087
:10259600436C6F75642052657365741B5B306D0008
:1025A600434C4F55443A204D51545420436F6E6E60
:1025B600656374696F6E2054696D656F75741B5B16
:0325C600306D0075
:0125C9000110
:1025CA00CF92DF92EF92FF921F93CF93DF93EB01AB
:1025DA008B3109F40AC120F4893009F40FC151C1C1
:1025EA008C3221F0823309F4D9C04BC18881813001
:1025FA0009F06DC080911936882309F18FED94E3B3
:10260A000E94EB5510921936EAE9F5E38AEF90E059
:10261A00A0E0B0E080839183A283B383848395830F
:10262A00A683B783CF010E949F1848EE53E060E06B
:10263A0070E085ED94E30E94CB360E948E5980911A
:10264A000E288A708830C1F4E1E9F5E38AEF90E058
:10265A00A0E0B0E080839183A283B38384839583CF
:10266A00A683B783CF010E949F1880910E288260AB
:10267A00877B806180930E2880910E2885FF16C083
:10268A008F7D80930E28EAE9F5E388EE93E0A0E0D7
:10269A00B0E080839183A283B38384839583A683E6
:1026AA00B78383E08087CF010E949F188BE69CE561
:1026BA009F938F9381E08F9384E08F930E946F445E
:1026CA000E9476560F900F900F900F9059C081116B
:1026DA0057C0E8E8F5E31082118212821382C12CF6
:1026EA00D12C7601C394C482D582E682F782CF01C7
:1026FA000E949F18EFE7F5E310821182128213827B
:10270A00C482D582E682F782CF010E949F18809107
:10271A000E2886FD22C0E1E9F5E3108211821282B9
:10272A00138281E090E0A0E0B0E084839583A683E1
:10273A00B783CF010E949F18EAE9F5E38AEF90E098
:10274A00A0E0B0E080839183A283B38384839583DE
:10275A00A683B783CF010E949F1880910E288D7E91
:10276A00886080930E2842E350E060E070E081ECDC
:10277A0094E30E94CB3680910E28816080930E28C4
:10278A00E091D935F091DA35309709F47AC0809121
:10279A000E2880FD76C08881099573C08BE198E286
:1027AA000E94835381116DC080910E2880FF09C059
:1027BA0081EC94E30E94EB5580910E288E7F8093E2
:1027CA000E2880910E288B7F80930E2883EA9CE541
:1027DA009F938F9381E08F9384E08F930E946F443D
:1027EA000F900F900F900F904CC088819981892B80
:1027FA0009F447C0CB010E94BC4A43C0FB01ED5912
:10280A00FF4F808181113DC0319780811F928F9344
:10281A0088EB9CE59F938F9382EF98E29F938F9327
:10282A000E940850DF93CF938BEB9CE59F938F9385
:10283A001F9213E01F930E946F446C2F7D2F8CE729
:10284A0098E20E94475CBE016F5D7F4F8DE998E276
:10285A000E94475C82EC9CE59F938F931F921F9383
:10286A000E946F4481E08093193640E050E0BA013B
:10287A008FED94E30E94CB368DB79EB740968DBFFD
:10288A009EBFDF91CF911F91FF90EF90DF90CF9085
:02289A0008959F
:10289C00AF92BF92CF92DF92EF92FF920F931F9362
:1028AC00CF93DF93CDB7DEB72697CDBFDEBF7C01CC
:1028BC006B016091BF357091C0358091C13590919D
:1028CC00C235611571058105910509F4FDC08901B9
:1028DC005A0122E030E0A7010E94BD418111F6C0EF
:1028EC008091BF359091C035A091C135B091C23562
:1028FC00BC01CD016E5F7F4F8F4F9F4F6093BF35F3
:10290C007093C0358093C1359093C23522E030E08E
:10291C00AE014B5F5F4F0E94BD418111D9C08091C8
:10292C00BF359091C035A091C135B091C235BC0175
:10293C00CD016E5F7F4F8F4F9F4F6093BF3570936C
:10294C00C0358093C1359093C23522E030E0AE01A2
:10295C004F5F5F4F0E94BD418111BCC08091BF355C
:10296C009091C035A091C135B091C235BC01CD015B
:10297C006E5F7F4F8F4F9F4F6093BF357093C03505
:10298C008093C1359093C23522E030E0AE014D5FAB
:10299C005F4F0E94BD4181119FC08091BF359091C6
:1029AC00C035A091C135B091C235BC01CD016E5F6F
:1029BC007F4F8F4F9F4F6093BF357093C03580937F
:1029CC00C1359093C235F7012081318132272327FD
:1029DC003227208331832D813E81322723273227D2
:1029EC00F801E05CFF4F2083318349815A815427E1
:1029FC004527542749835A834B815C8154274527AB
:102A0C0054274B835C83220F331FA8010E94BD41C6
:102A1C00811164C0F801E05CFF4F20813181220FED
:102A2C00331F8091BF359091C035A091C135B091C5
:102A3C00C235BC01CD01620F731F811D911D6093C6
:102A4C00BF357093C0358093C1359093C2352981C1
:102A5C003A81A6010E94BD41811142C029813A816F
:102A6C008091BF359091C035A091C135B091C235E0
:102A7C00BC01CD01620F731F811D911D6093BF3589
:102A8C007093C0358093C1359093C2352B813C81B6
:102A9C00A5010E94BD41811125C02B813C81409133
:102AAC00BF355091C0356091C1357091C235420F20
:102ABC00531F611D711D4093BF355093C0356093FA
:102ACC00C1357093C2350FC084EF0DC084EF0BC0BD
:102ADC0084EF09C084EF07C084EF05C084EF03C006
:102AEC0084EF01C084EF2696CDBFDEBFDF91CF917E
:102AFC001F910F91FF90EF90DF90CF90BF90AF9010
:022B0C0008952A
:102B0E004F925F926F927F928F929F92AF92BF92EF
:102B1E00FF920F931F93CF93DF9300D000D0CDB7CA
:102B2E00DEB7F82EB62E29013A0120E030E0A901D9
:102B3E006CE070E0CB010E94BA4020E030E0A901C9
:102B4E006CE870E180E090E00E94BA4020E030E056
:102B5E00A9016CEA77E082E090E00E94BA4021E0A1
:102B6E0030E040E050E068E171E180E090E00E94EA
:102B7E006D3F8111BFC020E034E040E050E060E0E6
:102B8E0074E180E090E00E946D3F8111B5C064E178
:102B9E0070E180E090E00E949B4D9923C4F76CEBAE
:102BAE0077E082E090E00E949B4D60FD19C00FEC33
:102BBE0017E061E070E080E090E00E9414526CE05B
:102BCE0070E0CB010E949B4D6E39704D8D4A904145
:102BDE0021F00150110968F703C0012B09F48EC0D2
:102BEE00FF2079F02DE735ED4CE15CE36CEA77E000
:102BFE0082E090E00E94BA40812C912C5401939473
:102C0E000DC0BB2039F0812C912C5401689487F8AB
:102C1E00939404C0812C912C54019394A30192019E
:102C2E006CE870E180E090E00E94BA400E9430288B
:102C3E00DC01CB019F70AA27BB27803A9340A105E8
:102C4E00B10510F0689481F8A501940160EA74E171
:102C5E0080E090E00E94BA40AE014F5F5F4F60EAA5
:102C6E0074E180E090E00E94F956811109C08981DB
:102C7E009A81AB81BC8188169906AA06BB0621F7FC
:102C8E0021E63FE242E55FEE6CE070E0CB010E9490
:102C9E00BA4000ED17E062E070E080E090E00E9444
:102CAE001452F11017C06CE870E180E090E00E94C1
:102CBE009B4D6633764283459240B9F420E030E076
:102CCE00A9016CE870E180E090E00E94BA400E9499
:102CDE00495117C06CEA77E082E090E00E949B4D6C
:102CEE00633C714C8D45974D59F00150110999F681
:102CFE0080E007C080E005C080E003C080E001C036
:102D0E0081E02496CDBFDEBFDF91CF911F910F9151
:102D1E00FF90BF90AF909F908F907F906F905F903D
:042D2E004F90089525
:102D3200CF92DF92EF92FF921F93CF93DF93CDB7A3
:102D4200DEB72697CDBFDEBF1B821C821D821E828C
:102D520065EB7FE60E943B5D89839A83009709F4C5
:102D6200C7C09E012F5F3F4F790110E0F7018193A9
:102D720091937F011F5F65EB7FE680E090E00E9408
:102D82003B5D009719F0133089F7C3C0E980FA80E0
:102D9200E114F10409F4B5C08B819C81009729F4F8
:102DA2008D819E81892B81F415C02D813E81232B3B
:102DB20059F40E947A5D9EEF980F923008F498C001
:102DC200813041F012E016C08D819E810E947A5DB1
:102DD200182F97C040E250E0B7018CE798E20E94BA
:102DE200EC5810929D2881E390E08093F228909312
:102DF200F32824C040E250E0B7018CE798E20E9439
:102E0200EC586B817C8140E450E08DE998E20E94AD
:102E1200EC581F921F9387EB9FE69F938F9382EF4D
:102E220098E29F938F930E9408500F900F900F90FB
:102E32000F900F900F90112309F45AC08AEB9FE66E
:102E42009F938F930E94C7540E94545C0F900F90DF
:102E5200882321F00E94845D0E94615780910E2890
:102E620088233CF48F7780930E280E94845D0E9411
:102E7200FC400E94A94EE8E8F5E31082118212821A
:102E82001382C12CD12C7601C394C482D582E682EE
:102E9200F782CF010E949F18EFE7F5E310821182BB
:102EA20012821382C482D582E682F782CF010E9407
:102EB2009F18E1E9F5E31082118212821382C48223
:102EC200D582E682F782CF010E949F18EAE9F5E3F4
:102ED2008AEF90E0A0E0B0E080839183A283B38385
:102EE20084839583A683B783CF010E949F1818C05D
:102EF20080EC9FE69F938F930E94C7540F900F9090
:102F02000FC0113009F466CF98F3143008F472CF71
:102F1200EFCFE980FA80E114F10409F03DCF6ACFE6
:102F22002696CDBFDEBFDF91CF911F91FF90EF902C
:062F3200DF90CF9008952E
:102F38004F4B0D00646562756720706172616D6545
:102F4800746572206D75737420626520626574778C
:102F580065656E203020284C656173742920616E88
:102F680064203420284D6F737429200D00342E30CE
:102F78002E30007625730D0A0400312E300025739B
:102F88000D0A0400556E6B6E6F776E2E0D0A0400E5
:102F98004572726F722067657474696E6720546831
:102FA800696E67204E616D652E0D0A04002C0025A0
:102FB80064004F4B0D0A04004572726F722E205741
:102FC800692D466920636F6D6D616E6420666F724E
:102FD8006D61742069732077696669203C73736931
:102FE800643E5B2C3C706173733E2C5B6175746846
:102FF800547970655D5D0D0A04002D2D2D2D2D2D44
:103008002D2D2D2D2D2D2D2D2D2D2D2D2D2D2D2DE8
:103018002D2D2D2D2D2D2D2D2D2D2D2D2D2D2D2DD8
:103028002D2D2D2D2D2D0D0A556E6B6E6F776E2063
:10303800636F6D6D616E642E204C697374206F66CA
:1030480020617661696C61626C6520636F6D6D618A
:103058006E64733A0D0A72657365740D0A64657659
:103068006963650D0A7468696E670D0A7265636F36
:103078006E6E6563740D0A76657273696F6E0D0AFC
:10308800636C695F76657273696F6E0D0A7769663E
:1030980069203C737369643E5B2C3C706173733EBA
:1030A8002C5B61757468547970655D5D0D0A6465A3
:1030B8006275670D0A2D2D2D2D2D2D2D2D2D2D2DC4
:1030C8002D2D2D2D2D2D2D2D2D2D2D2D2D2D2D2D28
:1030D8002D2D2D2D2D2D2D2D2D2D2D2D2D2D2D2D18
:1030E8002D0D0A04000D0A436F6D6D616E64207426
:1030F8006F6F206C6F6E670D007265736574007278
:1031080065636F6E6E6563740077696669007468DD
:10311800696E670064657669636500636C695F76EC
:10312800657273696F6E0076657273696F6E00649D
:053138006562756700EF
:01313D00048D
:10313E00CF93DF93EC018885813009F47DC008F4CC
:10314E00B6C08230F1F1833009F0EBC08BE695E327
:10315E000E94EB5585E795E30E94EB558C819D818E
:10316E00AE81BF81892B8A2B8B2B21F488E0809333
:10317E006604D7C088819981AA81BB81892B8A2B4D
:10318E008B2B21F488E080936504CBC0A5E7B5E3D3
:10319E001296CD93DC931397EBE6F5E3C283D383BC
:1031AE0085E398E58D939C93119785E298E580834E
:1031BE009183488159816A817B81CD010E94CB36F2
:1031CE00B0C087E595E30E94EB5581E695E30E943A
:1031DE00EB558C819D81AE81BF81892B8A2B8B2BE8
:1031EE0021F484E0809366049CC088819981AA8131
:1031FE00BB81892B8A2B8B2B21F484E08093650471
:10320E0090C0A1E6B5E31296CD93DC931397E7E554
:10321E00F5E3C283D38385E198E58D939C93119753
:10322E0085E098E580839183488159816A817B810D
:10323E00CD010E94CB3675C083E495E30E94EB5519
:10324E008DE495E30E94EB558C819D81AE81BF810B
:10325E00892B8A2B8B2B21F482E08093660461C02C
:10326E0088819981AA81BB81892B8A2B8B2B21F492
:10327E0082E08093650455C0ADE4B5E31296CD931C
:10328E00DC931397E3E4F5E3C283D38385EF97E5ED
:10329E008D939C93119785EE97E58083918348815A
:1032AE0059816A817B81CD010E94CB363AC08FE273
:1032BE0095E30E94EB5589E395E30E94EB558C81D3
:1032CE009D81AE81BF81892B8A2B8B2B21F481E0CE
:1032DE008093660426C088819981AA81BB81892B3F
:1032EE008A2B8B2B21F481E0809365041AC0A9E30D
:1032FE00B5E31296CD93DC931397EFE2F5E3C28319
:10330E00D38385ED97E58D939C93119785EC97E587
:10331E0080839183488159816A817B81CD010E948E
:08332E00CB36DF91CF91089529
:10333600246177732F7468696E67732F25732F73F3
:103346006861646F772F757064617465007B2273A2
:1033560074617465223A7B227265706F727465645B
:10336600223A7B22746F67676C65223A25647D7DFD
:103376007D00246177732F7468696E67732F2573D8
:103386002F736861646F772F7570646174652F643D
:10339600656C74610022746F67676C65223A00740D
:1033A6006F7069633A2025731B5B306D007061791D
:1033B6006C6F61643A2025731B5B306D0061316769
:1033C6007174387374746969676E332E696F742EFD
:1033D60075732D656173742D322E616D617A6F6E12
:1033E6006177732E636F6D005573696E672074681D
:1033F60065204157532053616E64626F7820656E75
:1034060064706F696E74203A2025731B5B306D0003
:1034160048656C6C6F204D6963726F6368697000F4
:1034260054656D703A2039382E39460057656967FC
:1034360068743A2037304B670042503A204E6F741A
:1034460020436F6E2E0052656164202020202020CC
:10345600202053617665004150503A2043727970BE
:10346600746F41757468496E6974206661696C652C
:10347600641B5B306D004150503A204465766963A9
:103486006549442067656E65726174696F6E206672
:1034960061696C65642C20756E7370656369666915
:1034A6006564206572726F721B5B306D004150500F
:1034B6003A2044657669636549442067656E65729E
:1034C6006174696F6E206661696C65642C20626147
:1034D6006420617267756D656E741B5B306D0041AB
:1034E60050503A2044657669636549442067656EA5
:1034F60065726174696F6E206661696C65641B5BD9
:10350600306D004D4348502E494F54006D6963722B
:093516006F636869700025640010
:103520002F923F924F925F926F927F928F929F92D3
:10353000AF92BF92CF92DF92EF92FF920F931F93C1
:10354000CF93DF93CDB7DEB72C97CDBFDEBF962FDD
:103550009F779A8389830115110539F0F701389611
:10356000EC0DFD1DEB83FC8304C0F9013896EB8361
:10357000FC83EB81FC81ED33F64008F0ABC03601F3
:10358000680149015A01162F082F0E94CD5381115D
:10359000A3C02B813C81C901A0E0B0E0DC019927E8
:1035A0008827802B9C01AD01312B2D833E834F83D7
:1035B00058876CE870E180E090E00E94BA4022E019
:1035C00030E040E050E068E770E180E090E00E9489
:1035D000BA4019861A861B861C8607EE13E0AE01D8
:1035E0004B5F5F4F68E770E180E090E00E94F95622
:1035F0000E94A85D882321F00E9451538FEF6DC077
:103600008D8181FD0AC0AE01475F5F4F60E074E0CD
:1036100085E190E00E94F9560DC0053F81E0180752
:1036200030F461E070E080E090E00E9414520150BC
:103630001109A8F60E94A85D811109C029843A8465
:103640004B845C84211431044104510421F40E9410
:1036500051538DEF42C028E030E0AE014F5F5F4F25
:10366000C201B1010E94662988E0280E311C411C6C
:10367000511CA114B10431F09401A501C201B101A2
:103680000E946629C114D10451F0C201B101660D36
:10369000771D811D911D9701A6010E9466298985CC
:1036A0009A85AB85BC85880F991FAA1FBB1F880F01
:1036B000991FAA1FBB1F9C01AD0122606CE670E13F
:1036C00080E090E00E94BA400E9451530E94A85DA1
:1036D000819503C08FEF01C08FEF2C96CDBFDEBF69
:1036E000DF91CF911F910F91FF90EF90DF90CF90DE
:1036F000BF90AF909F908F907F906F905F904F9012
:063700003F902F90089598
:103706008F929F92AF92BF92CF92DF92EF92FF92EB
:103716000F931F93CF93DF938C01DC011696CD9008
:10372600DD90ED90FC901997C091E135D091E2358E
:1037360014961D921C9215978091AF359091B035D5
:10374600A091B135B091B235C816D906EA06FB0686
:1037560008F065C08090AF359090B035A090B13537
:10376600B090B23580911B36882329F10E94185DEE
:10377600A0E0B0E04091AB355091AC356091AD35ED
:103786007091AE3584179507A607B70720F48FEF1B
:103796009FEFA0E0B0E04091AB355091AC35609121
:1037A600AD357091AE35841A950AA60AB70A880E09
:1037B600991EAA1EBB1E209791F0FE018681978155
:1037C600A085B18588199909AA09BB0986839783BB
:1037D600A087B1870480F581E02D309779F7809135
:1037E600AF359091B035A091B135B091B235881909
:1037F6009909AA09BB098093AF359093B035A09378
:10380600B135B093B235BFEFEB1AFB0AC818D90829
:10381600EA08FB08F801C682D782E086F18620977F
:1038260041F18E819F81A885B985C816D906EA0619
:10383600FB0658F41EC086819781A085B185C816FF
:10384600D906EA06FB06C0F1EF01EC81FD8130974F
:1038560091F732C08091132990911429D8011496BA
:103866008D939C9315970093E1351093E23581E093
:103876002BC01092AB351092AC351092AD3510922C
:10388600AE3580E090E00E94055A0E94BA5C8091B5
:10389600AB359091AC35A091AD35B091AE350E9467
:1038A600055A0E94BA5C8091E1359091E235B9E201
:1038B6008F309B0799F6CECFD8011496ED93FC93E3
:1038C60015970C831D8380E0DF91CF911F910F9197
:1038D600FF90EF90DF90CF90BF90AF909F908F902A
:0238E600089543
:1038E8004F925F926F927F928F929F92AF92BF9208
:1038F800CF92DF92EF92FF920F931F93CF93DF93B4
:10390800CDB7DEB7CC53D140CDBFDEBFBE016F5FB0
:103918007F4F20E1DB011D922A95E9F7FE017196A0
:1039280024E6DF011D922A95E9F7EC59FF4F28ECB0
:10393800DF011D922A95E9F78C01085F1F4F41E0CE
:1039480050E0C8010E94593E41E050E0BE016E5F60
:103958007F4FC8010E94593E8A818823ACF47E01BA
:10396800B3E0EB0EF11C5E01E6E0AE0EB11C41E0E7
:1039780050E0B701C8010E94593EF7018081FFEF6E
:10398800EF1AFF0A88236CF0FE013296412C512C65
:103998003201C12CD12C7601C394812C912C540175
:1039A80004C0EA14FB0419F7EFCFA191AF77B0E098
:1039B800A70196010E943C5A460E571E681E791EA2
:1039C800CC0CDD1CEE1CFF1CCC0CDD1CEE1CFF1C03
:1039D800CC0CDD1CEE1CFF1CCC0CDD1CEE1CFF1CF3
:1039E800CC0CDD1CEE1CFF1CCC0CDD1CEE1CFF1CE3
:1039F800CC0CDD1CEE1CFF1C8FEF881A980AA80A55
:103A0800B80A99F2DF0111978C91882374F242E089
:103A180050E0BE016A5F7F4FC8010E94593EBE0157
:103A28006F5E7F4F688779874E815F81542745276E
:103A38005427C8010E94593E8E819F819827892763
:103A480098274EEF5FEF6FEF7FEF481B590B610927
:103A58007109440D551D661D771DCE018B589F4F6A
:103A68008D879E87BC01C8010E94593E0E94F55C63
:103A7800FC01892B29F06D857E85888599850995B6
:103A8800C8010E94C85B83E0C45CDE4FCDBFDEBFC7
:103A9800DF91CF911F910F91FF90EF90DF90CF9022
:103AA800BF90AF909F908F907F906F905F904F9056
:023AB80008956F
:103ABA002F923F924F925F926F927F928F929F9234
:103ACA00AF92BF92CF92DF92EF92FF920F931F9322
:103ADA00CF93DF93CDB7DEB7A597CDBFDEBF1982EF
:103AEA001A82833008F0A1C0823021F46031710556
:103AFA0008F09DC00115110509F49BC02115310577
:103B0A0009F499C0680119012A016CA37DA38BA34A
:103B1A00AE014F5F5F4F0E940B3381118FC0298125
:103B2A003A81C801840D951D2817390708F485C004
:103B3A00320176946794769467947694679476942F
:103B4A006794769467946894FF24F5F8812C912CF5
:103B5A00A12CB12C80E2F8121CC089819A819301B0
:103B6A00220F331F22953295307F3227207F32274A
:103B7A00821B930B809768F442018A0C9B1C9694D3
:103B8A0087949694879497E0892299246894FF24CD
:103B9A00F2F8EF2C8E010D5F1F4F282D462D6CA1D8
:103BAA007DA18BA10E945C31811148C0C301880F9D
:103BBA00991F880F991F880F991F880D991D880FC3
:103BCA00991F880F991F8415950520F4B201681B67
:103BDA00790B02C060E070E08F2D90E0861B970B96
:103BEA0086010A191B098017910708F48C0183E0E2
:103BFA0090E08C0F9D1F680F791FA801C1018A0DE3
:103C0A009B1D0E948D5BA00EB11E90E2F91204C0AA
:103C1A008FEF681A780A03C09FEF891A990AAC14C1
:103C2A00BD0408F497CF80E009C082EE07C082EE97
:103C3A0005C080E003C082EE01C082EEA596CDBF2A
:103C4A00DEBFDF91CF911F910F91FF90EF90DF9030
:103C5A00CF90BF90AF909F908F907F906F905F9022
:083C6A004F903F902F90089548
:103C72002F923F924F925F926F927F928F929F927A
:103C8200AF92BF92CF92DF92EF92FF920F931F9368
:103C9200CF93DF93F12C00E715EFD8011696CD9163
:103CA200DC9117970F2EFAE6AF2EFFEEBF2EF02D06
:103CB2000F2EF2E08F2EF0E79F2EF02D0F2EFDE05B
:103CC2003F2EF02D84C0D801ED91FC9109958D30E5
:103CD20021F08A3009F06BC07FC0E0911736F0E026
:103CE200E55FFD4C108280911636811154C07FC071
:103CF20090911536809315369D3009F453C0F1101A
:103D020051C060E270E08BE092E30E94475A3C01AE
:103D1200009719F0FC0111923F01EBE0F2E30190F0
:103D22000020E9F73197EB50F2432E2E0F2EFAE4E2
:103D3200EF2EFFEEFF2EF02DD701CD90DC90B601D5
:103D42008BE092E30E94965BF60101900020E9F776
:103D52003197EC19FD0981110CC02E120AC0D7014E
:103D62001296ED91FC911397309719F0C3010995C2
:103D72000CC0B4E0EB0EF11CEA14FB04E9F69F92CE
:103D82008F920E94C7540F900F908091163688230D
:103D920039F0FF24F3948DEE90E70E94FD4102C0BA
:103DA200FF24F394109217361092163610C0E09149
:103DB2001736E43648F491E09E0F90931736F0E000
:103DC200E55FFD4C808303C081E080931636FE01DF
:103DD2000995811178CF0EC0E0911736F0E0E55FCA
:103DE200FD4C1082909116369111D5CF81CF309231
:103DF200153685CF62E370E080E090E0DF91CF91ED
:103E02001F910F91FF90EF90DF90CF90BF90AF90F6
:103E12009F908F907F906F905F904F903F902F90E8
:023E2200089501
:103E2400CF92DF92EF92FF92CF93DF93CDB7DEB7BD
:103E34006097CDBFDEBF6B017C018AE290E50E94F2
:103E44008357882369F089E598E99F938F931F929C
:103E540083E08F930E946F440F900F900F900F9008
:103E640060E070EA80E090E00E946A53882369F081
:103E74008CE798E99F938F931F9283E08F930E941E
:103E84006F440F900F900F900F90C114D104E10470
:103E9400F10409F48CC082E090E089839A8383EB77
:103EA40092E20E94525D8B839C83CD82DE82EF82FC
:103EB400F8860E94845D6C01DC015096ED91FC91C2
:103EC40051978081082E000C990B0E94215B81116F
:103ED4001CC0F601E088F18841E050E061E070E048
:103EE40082E090E00E94FC49D7018C93D601509661
:103EF400ED91FC915197808188233CF00E94734D91
:103F0400009719F021E0FC012483D6015096ED912D
:103F1400FC9151978081082E000C990B0E94215B23
:103F2400813009F042C080EA98E99F938F931F92F1
:103F340084E08F930E946F44D6015096ED91FC91DA
:103F44005197808140E150E0BE016F5F7F4F082EA2
:103F5400000C990B0E94812FF82E0F900F900F9058
:103F64000F90882329F18F2D0F2C000C990B9F9310
:103F7400FF928AEB98E99F938F9383E08F9384E079
:103F84008F930E946F44D6015096ED91FC91519706
:103F94008081082E000C990B0E94CD4E0F900F903B
:103FA4000F900F900F900F9003C0F12C01C0F12CD3
:103FB4008F2D6096CDBFDEBFDF91CF91FF90EF9044
:063FC400DF90CF9008958C
:103FCA00FF920F931F93CF93DF9300D000D0CDB70A
:103FDA00DEB7029709F0B5C0613009F044C02091FC
:103FEA003436022F10E0C801019667E070E00E94A3
:103FFA003B56809334369BE0909FF001919FF00DE1
:10400A001124EE56FE4C9085911109C08BE0809FD9
:10401A00F001819FF00D1124EE56FE4C1BC0282F93
:10402A0036E00F2EFBE0FF2EF02D07E010E0822F86
:10403A0090E0F89EF001F99EF00D1124EE56FE4C28
:10404A000196B8010E943B56582F9085911104C0E1
:10405A0050933436122F45C03150282F41F75093D0
:10406A0034361FEF3EC0623009F06DC020913336FE
:10407A00822F90E03BE0239FF0011124E152FE4C95
:10408A00019683709078992324F401978C6F9F6F1F
:10409A0001968093333630853323D1F0282F33E0CD
:1040AA006BE0822F90E0689FF001699FF00D112468
:1040BA00E152FE4C019683709078992324F401977B
:1040CA008C6F9F6F01965085511105C080933336CE
:1040DA0017E0120F06C03150282F19F78093333694
:1040EA001FEF309789F18BE0DF011D928A95E9F77E
:1040FA0081E0808780910F36909110369C012F5F66
:10410A003F4F29F020930F363093103605C00296A0
:10411A0080930F369093103680910F369091103617
:10412A008483958340FF10C0198381E2818724E04C
:10413A0030E0AE014F5F5F4F60E582E00E945B5561
:10414A0003C01FEF01C01FEF812F2496CDBFDEBF32
:0C415A00DF91CF911F910F91FF9008950D
:10416600A8E0B0E0E9EBF0E20C94A6538B01FC0169
:10417600608171818281938120E831E541E050E0E0
:104186000E94E64F69017A012CE330E040E050E0FE
:104196000E942C5429833A834B835C8389819A81BC
:1041A600AB81BC81F80160836CE370E00E943B56F2
:1041B600DC01CB01F801A1838283C601069667E084
:1041C60070E00E94275684832DEA3EE840E050E0E6
:1041D600C701B6010E942C5429833A836D837E83DE
:1041E6008F83988789819A8124E6289F6001299F79
:1041F600D00C11246D817E818F81988525EB35E069
:1042060040E050E00E942C5429833A836D837E83DC
:10421600E980FA80EE0CFF1CEE0CFF1CEC0CFD1C7A
:104226008D819E81F5E6EF16F10410F0019604C02B
:1042360024E6E216F10419F021E030E002C020E0A5
:1042460030E0A90144595E4F4817590768F46DE6F6
:1042560071E0821B930B0E943B56DC01CB01E80EFA
:10426600F91ECD0120E030E044E6E40EF11CF80131
:10427600E682F78280879187255C3F4F82179307F6
:1042860048F46FE170E00E943B56DC01CB01F80177
:10429600858322C069E970E0821B930B0E943B561E
:1042A600DC01CB01F82EFF0CFF0CF80E6DE370E07D
:1042B600CD010E943B56DC01CB01E82EEE0C6FE1EE
:1042C60070E0CD010E943B56DC01CB0122E0280FB5
:1042D600F20EFE0CF801F582A383F801128613860E
:0E42E60083818F5F83832896E8E00C94075451
:1042F400CF92DF92EF92FF92CF93DF93CDB7DEB7E9
:10430400C057D109CDBFDEBF69017A01863059F1AA
:10431400873009F440C0813009F09FC020E730E0C5
:10432400AE014F5F5F4FC701B6010E94BD418111CD
:1043340094C0E0910536F0910636309709F48DC0AB
:1043440080E7C80ED11CE11CF11CC092BF35D0928D
:10435400C035E092C135F092C235BE016F5F7F4F28
:1043640081E009957AC024E030E0AE014F5F5F4FF1
:10437400C701B6010E94BD4181116FC0E0910536AD
:10438400F0910636309709F468C0BE016F5F7F4F25
:1043940086E0099562C028E030E0AE014F5F5F4FD0
:1043A400C701B6010E94BD4181114DC02D813E81DE
:1043B4008F8198856B817C8149815A8121153105D2
:1043C40099F421E020932F368617970709F020E00F
:1043D400CA01992781309105A1F1C8F08230910575
:1043E400E9F00397F1F02AC0820F931F21E08617AA
:1043F400970709F020E0CA0199278130910509F156
:1044040030F08230910551F0039759F013C0809138
:104414002F368130B1F440932F3613C040932F369A
:1044240010C080912F36823061F0843051F0409377
:104434002F3607C080912F36823019F084E08093A4
:104444002F36222351F0E0910536F091063630974D
:1044540021F06FE276E387E00995C059DF4FCDBFC5
:10446400DEBFDF91CF91FF90EF90DF90CF90089562
:104474001F93CF93DF93CDB7DEB72897CDBFDEBFB1
:104484000E94395C182F882309F4A0C0AE014F5F45
:104494005F4F60E770E180E090E00E94F95681117F
:1044A40084C089819A81AB81BC8180FF80C09C01DA
:1044B400AD012E7F29833A834B835C8360E770E1EF
:1044C40080E090E00E94BA40811173C089819A8192
:1044D400AB81BC81B695A79597958795B695A79519
:1044E400979587959F708093033690930436892B14
:1044F40009F461C04BEB55E364E870E180E090E0BF
:104504000E94F956811159C06091BB357091BC3538
:104514008091BD359091BE3524E030E0AE014B5F13
:104524005F4F0E942537182F811149C06F8178850C
:104534008091033690910436861B970B059708F0FB
:1045440040C0ED818FEF8E0F8730E8F58091BB3549
:104554009091BC35A091BD35B091BE359C01AD01A3
:10456400285F3F4F4F4F5F4F68507109F0E0EE0FE7
:10457400FF1FEE59F7400190F081E02D8E810995DF
:1045840081E00E946F5422E030E040E050E060E7B8
:1045940070E180E090E00E946D3F80E00E946F54E3
:1045A4000E94A85D882391F010C014EF0FC014EF8F
:1045B4000DC014EF0BC01EEF09C014EF07C014EFB9
:1045C40005C01AEF03C014EF01C014EF812F289621
:0C45D400CDBFDEBFDF91CF911F91089595
:1045E000EF92FF920F931F93CF93DF93CDB7DEB778
:1045F000C25CD109CDBFDEBF8C01CF53DF4F188223
:104600001982C15CD04081E090E08B839C83F801EB
:10461000808191818330910501F130F481309105E1
:1046200051F0029731F15BC08430910509F445C027
:104630000597A1F154C0AE01435F5F4FBE016F5AB1
:104640007F4FC8010C960E947330082E000C990B06
:104650008B839C83E12CF12C44C0CE010D960E94EB
:104660003640082E000C990B8B839C83E12CF12C97
:1046700038C0AE014F5A5F4FB801645F7F4FF801F9
:10468000E25BFF4F808191810E94AE50082E000CAA
:10469000990B8B839C83E12CF12C23C0F80164855A
:1046A0007585868597850E944C26082E000C990BEF
:1046B0008B839C83E12CF12C14C07E01F1E7EF0E7B
:1046C000F11CAE014F535F4FB701C8010C960E9419
:1046D000323A082E000C990B8B839C8302C0E12C8C
:1046E000F12CF8018081918189839A83848195815D
:1046F000A681B7818D839E83AF83B887808591859E
:10470000A285B38589879A87AB87BC870E94455B62
:10471000CF53DF4F48815981C15CD0406E2D7F2D32
:10472000CE0101960E949C52CE53DF4FCDBFDEBF1B
:0E473000DF91CF911F910F91FF90EF900895B0
:10473E00CF92DF92EF92FF920E94725B6B017C012F
:10474E000E94545C8823D1F02091C7353091C83532
:10475E004091C9355091CA35C701B6010E94B45D6A
:10476E001616170618061906D4F4C092C735D0923D
:10477E00C835E092C935F092CA3511C0E8E8F5E3C4
:10478E00108211821282138281E090E0A0E0B0E0EC
:10479E0084839583A683B783CF010E949F1880914F
:1047AE000E2883FD42C081FF11C0EAE9F5E381E0E6
:1047BE0090E0A0E0B0E080839183A283B383148263
:1047CE00158216821782CF010E949F1880910E28A3
:1047DE0084FD2BC00E94545C882391F0E1E9F5E33F
:1047EE0081E090E0A0E0B0E080839183A283B38368
:1047FE001482158216821782CF010E949F1815C04F
:10480E0080910E2888238CF4E1E9F5E38AEF90E09D
:10481E00A0E0B0E080839183A283B38384839583E9
:10482E00A683B783CF010E949F1880910E2882FF26
:10483E0012C0EFE7F5E381E090E0A0E0B0E0808306
:10484E009183A283B3831482158216821782CF01BD
:10485E000E949F1811C0EFE7F5E3108211821282B9
:10486E00138281E090E0A0E0B0E084839583A6837C
:10487E00B783CF010E949F1864E670E080E090E05D
:0A488E00FF90EF90DF90CF900895A7
:104898004F925F926F927F928F929F92AF92BF9248
:1048A800EF92FF920F931F93CF93DF9300D000D026
:1048B800CDB7DEB77C0148015901742E6624552412
:1048C8004424872F9927AA27BB27482A592A6A2AC6
:1048D8007B2A8BE0482ADB01CA018827AA27BB2745
:1048E800BA2FA92F982F8827482A592A6A2A7B2A5B
:1048F800442755277727452F562F672F7727442A90
:10490800552A662A772AA901980168E072E081E0B1
:1049180090E00E94BA40A30192016CE072E081E04D
:1049280090E00E94BA4025EA30E040E050E060E1C3
:1049380072E081E090E00E94BA402FE130E040E070
:1049480050E064E172E081E090E00E94BA4020E02B
:1049580030E04DE050E06CE172E081E090E00E94D0
:10496800BA4025E830E040E050E064E072E081E0E1
:1049780090E00E94BA40AE014F5F5F4F68E172E07D
:1049880081E090E00E94F956811108C089819A81DE
:10499800AB81BC810197A105B10569F70E94A85DAB
:1049A800882319F00DC084EF0CC09401A70160E0C2
:1049B80070E08DE090E00E942537882311F0F3CF56
:1049C80084EF2496CDBFDEBFDF91CF911F910F9169
:1049D800FF90EF90BF90AF909F908F907F906F90D7
:0649E8005F904F9008955E
:1049EE00A0E0B0E0EDEFF4E20C94A253EC01EE8106
:1049FE00FF818F0104561109B9F0CF018556910937
:104A0E006C0197FF03C023E0C20ED11CD594C7944E
:104A1E00D594C7946CE97FEF0E943B56C60ED71E05
:104A2E008FEFC81AD80A02C0C12CD12C2DE631E066
:104A3E00D8010E94405C0D2C000CEE08FF08C60E3B
:104A4E00D71EE81EF91E8B81082E000C990B8C01C7
:104A5E00015011092D8122302CF4222379F1015EAF
:104A6E001F4F2CC0CF018459984F0E944F56282FAC
:104A7E0030E0255C3F4F200F311F8D81082E000C3A
:104A8E00990B02978530910514F027563F4F65E03C
:104A9E0070E00E943B56AC0197FF02C04F5F5F4F24
:104AAE00559547959DE3949F8001959F100D112478
:104ABE00020F131F80FF02C0015E1F4FC801110FAE
:104ACE00AA0BBB0B9C01AD012C0D3D1D4E1D5F1D98
:104ADE0060E871E581E090E00E9455584B015C0161
:104AEE00AA810A2E000CBB0B20E13EE00E94405C26
:104AFE006B017C01A9810A2E000CBB0B2CE330E06C
:104B0E000E94405CC60ED71EE81EF91E6881862FD5
:104B1E00660F990BAA0BBB0B8C0D9D1DAE1DBF1DF9
:104B2E00BC01CD01680D791D8A1D9B1DCDB7DEB769
:064B3E00ECE00C940354AE
:104B44000F931F93CF93DF930E94B84640E054E045
:104B540082EDFA01808320E234E0F901108280E4DE
:104B640094E069E0FC016083C0E6D4E06FE0688310
:104B7400A0E8B4E01C9200EA14E079E1F801708343
:104B840070E8FA017483F9011482FC0114826C83C5
:104B940014961C921497F8011482FA01108A118A4F
:104BA400128A138A148A158A168A178AF901108AB6
:104BB400118A128A138A148A158A168A178AFC01A2
:104BC400108A28E0218B128A138A148A158A168A7D
:104BD400178A188A198A1A8A1B8A1C8A84E08D8B80
:104BE4001E8A1F8A50961C92509751961C92519778
:104BF40052961C92529753961C92539754961C9219
:104C0400549755961C92559756961C9256975796BC
:104C14001C92F801108A218B8BE0828B138A148AF0
:104C2400258B268B178AE0EEF5E011821082148220
:104C34001582138212828CEC9DE58093FB35909350
:104C4400FC358DEC9DE58093F9359093FA358EEC27
:104C54009DE58093F7359093F8358FEC9DE580932F
:104C6400F5359093F63580ED9DE58093F33590937B
:104C7400F43581ED9DE58093F1359093F23582ED25
:104C84009DE58093EF359093F035DF91CF911F919F
:044C94000F910895DF
:104C98008F929F92AF92BF92CF92DF92EF92FF9244
:104CA8001F93CF93DF93CDB7DEB7C75ED109CDBFD2
:104CB800DEBFFE01EB56FF4F20E5DF011D922A956E
:104CC800E9F7CB51DF4F18821982C55ED0406115D4
:104CD80071058105910509F461C04B015C01C12C86
:104CE800D12C76019E012F5F3F4FAE014B5B5F4F8A
:104CF800BE016B567F4FCE018B519F4F0E944E14C1
:104D0800182F8823B1F0812F012E000C990B9F9347
:104D18001F9383E895EA9F938F931F9283E08F9365
:104D28000E946F440F900F900F900F900F900F906C
:104D380045C0CB51DF4F88819981C55ED0404797E8
:104D480009F5C951DF4F1882C75ED0409E0129512D
:104D58003F4FAE014F5F5F4FBE016B5B7F4FCE0190
:104D68008B569F4F0E947036811108C0C951DF4F82
:104D78008881C75ED040811105C012C00E94D65DEF
:104D880014EF1CC0BFEFCB1ADB0AEB0AFB0A8C142A
:104D98009D04AE04BF0409F0A5CF10C014EF0EC0E7
:104DA80082EB95EA9F938F931F9283E08F930E94E3
:104DB8006F440F900F900F900F90E0CF812FC95143
:104DC800DF4FCDBFDEBFDF91CF911F91FF90EF90F6
:0E4DD800DF90CF90BF90AF909F908F90089586
:104DE600CF93DF9382E093E69F938F93C3E0CF93B5
:104DF60084E08F930E946F4488E193E69F938F939C
:104E06001F92CF930E946F4410920A2810920B288B
:104E160010920C2810920D2880910E288D7F8860A4
:104E260080930E2880910928877F8B7F809309289D
:104E36000E94354860E176E488EE90E30E94695B63
:104E46000E944B4DCFE0D8E28AE0FE0111928A958E
:104E5600E9F7CE010E94EB5C0E94845DFC0180892B
:104E66009189888399838EE79DE58A839B838DB795
:104E76009EB708968DBF9EBF80917C28882399F0A7
:104E86008091F228882379F08AE293E69F938F93A4
:104E96001F9283E08F930E946F440F900F900F90A4
:104EA6000F9081E00EC084E593E69F938F931F9247
:104EB60083E08F930E946F440F900F900F900F9096
:104EC60080E00E943D41882309F183EA94E30E9431
:104ED600EB5588E893E69F938F931F9283E08F9319
:104EE6000E946F4440E157E260E070E08DEA94E38F
:104EF6000E94CB36809109288D7F886081608093DF
:104F060009280F900F900F900F9005C080910928E7
:104F16008E7F8093092860E070E0CB01DF91CF910E
:024F26000895EC
:104F2800CF92DF92EF92FF920F931F93CF93DF936D
:104F3800CDB7DEB7C75CD109CDBFDEBF411551057E
:104F480009F454C0E091DD35F091DE35C080D180A0
:104F5800982F9370923009F062C02115310531F411
:104F680047C00115110509F05EC044C08C836D83EC
:104F78007E8380E4FA01DE01179601900D928A95EE
:104F8800E1F780E4F901DE01A95BBF4F01900D92C2
:104F98008A95E1F709C083E1F801DE01A95BBF4FFB
:104FA80001900D928A95E1F7BE016F5F7F4FC601B0
:104FB8000E94A24F811143C06091DD357091DE35AA
:104FC800CE0101960E94072F811139C0E114F10426
:104FD80099F08F81833290F080E2FE013896D701F4
:104FE80001900D928A95E1F780E029C082EE27C0F2
:104FF80082EE25C082EE23C080E021C080E01FC081
:105008008C836D837E8380E4FA01DE01179601901C
:105018000D928A95E1F70115110531F2BCCF933055
:1050280009F49FCFEDCF8C836D837E8380E4FA01F2
:10503800DE01179601900D928A95E1F7ACCFC9531E
:10504800DF4FCDBFDEBFDF91CF911F910F91FF9052
:08505800EF90DF90CF90089566
:10506000CF92DF92EF92FF92CF93DF9300D000D0E8
:10507000CDB7DEB7C090B735D090B835E090B93530
:10508000F090BA35C114D104E104F10409F078C0FC
:10509000AE014F5F5F4F64EF73E180E090E00E94EC
:1050A000F95681116DC047EB55E360E070E180E097
:1050B00090E00E94F956811163C08091B7359091BC
:1050C000B835A091B935B091BA35803A22E092074F
:1050D00020E1A207B105A9F489819A81AB81BC8145
:1050E0000197A105B105C1F181EA92E0A0E1B0E02C
:1050F0008093B7359093B835A093B935B093BA354E
:105100002BC0803B9240A041B10531F589819A8145
:10511000AB81BC8183309105A105B105E9F004970D
:10512000A105B10569F481EB92E0A0E1B0E08093C4
:10513000B7359093B835A093B935B093BA350CC054
:1051400082EB92E0A0E1B0E08093B7359093B83560
:10515000A093B935B093BA35C090B735D090B83573
:10516000E090B935F090BA3580EFE82225E0E22AE8
:10517000C092B735D092B835E092B935F092BA35D1
:10518000C701B6012496CDBFDEBFDF91CF91FF905E
:08519000EF90DF90CF9008952D
:105198008F929F92AF92BF92FF920F931F93CF93DC
:1051A800DF93CDB7DEB7CC56D109CDBFDEBFF82E21
:1051B80049015A0180913F338E3309F442C0F816F1
:1051C80031F00FE313E337C08F1135C002C00FE38E
:1051D80013E3D80111962D913C91129721153105B1
:1051E80009F45BC0AE014F5F5F4FC501B4010E9477
:1051F800BD41811159C0E0910736F09108363097CA
:1052080001F1D80111968D919C911297892B71F01B
:10521800B1E1FB1205C01092303689818093323695
:10522800BE016F5F7F4F8F2D09950BC060E070E066
:105238008F2D099506C00D5F1F4FF80180818E33B1
:1052480019F6F0E2FF1230C028E030E0AE014B5909
:105258005F4FC501B4010E94BD41811125C0AB96C5
:105268002EAD3FADAB97A7964EAD5FADA797C501E5
:10527800B401685F7F4F8F4F9F4F0E94BD418111DE
:1052880013C0E0910736F0910836309769F0BE01F7
:105298006B597F4F80E2099507C0E0910736F0917E
:1052A8000836309771F2C2CFC459DF4FCDBFDEBF89
:1052B800DF91CF911F910F91FF90BF90AF909F907A
:0452C8008F90089526
:1052CC007F928F929F92AF92BF92CF92DF92EF928A
:1052DC00FF920F931F93CF93DF93CDB7DEB7289731
:1052EC00CDBFDEBF6A018901FE01319697E0DF0177
:1052FC001D929A95E9F797EC998390912D3691111F
:10530C0049C091E090932D362130310511F402E023
:10531C0010E08A837B836C831E830F8367E0CE014E
:10532C0001960E947055B82E811137C081EF888785
:10533C0001151105D9F1712C6894882485F80F2E6C
:10534C00F3EF9F2EF02D0F2EF2EFAF2EF02D7801F4
:10535C000130B0E21B0710F0E72CF82C0E191F09D6
:10536C0009F4988661E070E0CE0108960E948C39B1
:10537C008823C9F0B701C6010E948C39882399F0A3
:10538C00A886CE0CDF1C0115110509F70FC0109271
:10539C002D3612C0BB24B3940FC0BB24B3940CC0E5
:1053AC00BB24B39409C0BB24B39406C083EC0E9405
:1053BC000048882361F3F4CF8B2D2896CDBFDEBF38
:1053CC00DF91CF911F910F91FF90EF90DF90CF90D5
:0C53DC00BF90AF909F908F907F9008953D
:1053E800CF93DF93EC01E4EBF3E38DE1DF011D9252
:1053F8008A95E9F790819F709061908384E0868315
:105408009DE4978391E5908794E5918792878387B8
:105418008F89988D892B21F48B899C89892B21F080
:1054280082EC8093C03303C082E08093C03344EBA6
:1054380053E38D859E85982789279827FA018587C4
:105448009687A989BA89A18BB28BFD0101900020AA
:10545800E9F79F01215031092A1B3B0BDA011F96FE
:105468002D933C9350974091C03346FF09C0898DD6
:105478009A8DFD01818F928F8F89988D878B908F60
:10548800442394F48D899E89E4EBF3E3858B968B12
:105498006B897C89638B748B8789908D860F971FA6
:1054A8000496820F931F01C0C9010C968093CF33D5
:1054B8009093D033407C81F0E4EBF3E38789908DBF
:1054C800982789279827878B908F8389948998278D
:1054D80089279827838B948B322723273227209379
:1054E800C3333093C43381E08093223680931D36D2
:0654F800DF91CF91089541
:1054FE00CF92DF92EF920F93CF93DF93CDB7DEB7BC
:10550E002B97CDBFDEBFDC01690119821A828B8316
:10551E009C836D830E83E11002C082E001C080E0A7
:10552E00613248F00CC0FD01E60FF11D9081911122
:10553E0003C0362F01C0362F6150A8F73D8342308D
:10554E0081F018F4413039F048C0433059F14430FD
:10555E0009F43FC042C0BE016F5F7F4F0E947F4F74
:10556E0043C0C114D104D9F11F82188619861A8638
:10557E001B86F60101900020E9F73197EC19FD0921
:10558E00E034F10519F4CF82D88603C0C986DA86D5
:10559E00EB87AE01495F5F4FBE016F5F7F4F0E9489
:1055AE008E2D22C0C114D104E1F096012E5F3F4F23
:1055BE002F833887F60191819150998790819A8730
:1055CE00AE01495F5F4FBE016F5F7F4F0E949A34FD
:1055DE000BC0CD2841F084EF07C081EF05C081EFED
:1055EE0003C081EF01C081EF2B96CDBFDEBFDF91EF
:0C55FE00CF910F91EF90DF90CF900895B7
:10560A00CF92DF92EF92FF920F931F93CF93DF9384
:10561A00CDB7DEB72897CDBFDEBF88230CF45FC0B5
:10562A006115710509F45DC04115510509F45BC0A6
:10563A00A82F082E000CBB0B9BE08902F001112455
:10564A00EE56FE4C9085992309F44FC09BE09A9F31
:10565A00F0019B9FF00D1124EE56FE4C608371837E
:10566A00428353839285911142C09BE09A9FF00135
:10567A009B9FF00D1124EE56FE4C91E09287918586
:10568A0090FF02C06DE401C066E401151105210511
:10569A00310549F4CC24CA94DC2C7601C982DA8219
:1056AA00EB82FC8204C009831A832B833C838D839B
:1056BA008BE08A9FF0018B9FF00D1124EE56FE4C71
:1056CA00848195818F83988728E030E0AE014F5F0F
:1056DA005F4F82E00E945B55882361F00AC08AEF1F
:1056EA0009C08AEF07C08AEF05C08AEF03C080E0CD
:1056FA0001C082EF2896CDBFDEBFDF91CF911F9107
:0C570A000F91FF90EF90DF90CF9008957A
:10571600EF92FF920F931F93CF93DF93182F092FCA
:10572600F62EE72E8FE498E29F938F9388E793E710
:105736009F938F93CBE1D9E2DF93CF930E940850DA
:1057460009900020E9F72197AE014B515942612F8C
:10575600702F8BE199E20E9425590F900F900F90C0
:105766000F900F900F90892BA1F56BE973E78F2DA2
:105776009E2D0E94EC52009761F1FC0181858133D8
:10578600A9F481E080933736E8E8F5E381E090E01C
:10579600A0E0B0E080839183A283B3831482158254
:1057A60016821782CF010E949F1813C010923736B7
:1057B600E8E8F5E3108211821282138281E090E01C
:1057C600A0E0B0E084839583A683B783CF010E94CF
:1057D6009F180F931F9385EA93E79F938F931F92CA
:1057E6001F920E946F44EF92FF9283EB93E79F9381
:1057F6008F931F921F920E946F440E94E8448DB7B8
:105806009EB70C968DBF9EBFDF91CF911F910F91D2
:06581600FF90EF900895E1
:10581C004163746976654353206269746D61703AB3
:10582C00253034781B5B306D00434C4F55443A2087
:10583C00436C6F75642072657365742074696D6553
:10584C0072206973207365741B5B306D0057694659
:10585C00692053534C20496E697469616C697A6193
:10586C0074696F6E206661696C65641B5B306D00DA
:10587C00536574206163746976652063697068652B
:10588C007220737569746573206661696C65641B3D
:10589C005B306D00434C4F55443A20436F6E6E6540
:1058AC00637420736F636B65741B5B306D00434CCA
:1058BC004F554420636F6E6E65637420726563652B
:1058CC00697665642025641B5B306D00434C4F5535
:1058DC00443A204D51545420436F6E6E6563741BD3
:1058EC005B306D00434C4F55443A20446973636FF1
:1058FC006E6E6563741B5B306D004D5154543A20D1
:10590C0073656E64726573756C7420282564291B2D
:04591C005B306D008F
:10592000CF92DF92EF92FF920F931F93CF93DF936B
:10593000CDB7DEB76097CDBFDEBF88230CF45BC068
:105940006115710509F459C0493795E0590708F008
:1059500056C0282F082E000C330B9BE08902F00163
:105960001124EE56FE4C9085992309F44AC0898390
:105970004B835C839BE0929FF001939FF00D112479
:10598000EE56FE4C0480F581E02DED87FE878730D2
:1059900034F00F2EF4E4CF2ED12CF02D05C00F2EB5
:1059A000F0E5CF2ED12CF02D8BE0829FF001839F6C
:1059B000F00D1124EE56FE4C818580FF0CC08BE06B
:1059C000829FF001839FF00D1124EE56FE4CC6809D
:1059D000D7808CE401C085E47A018B01682F606870
:1059E00020E130E0AE014F5F5F4F82E00E94901AED
:1059F000882351F008C08AEF07C08AEF05C08AEFFC
:105A000003C08AEF01C082EF6096CDBFDEBFDF9199
:105A1000CF911F910F91FF90EF90DF90CF9008955D
:105A2000CF93DF93FC0180E1A0E6B4E3ED0119928E
:105A30008A95E9F780911D36833009F06BC09C91FF
:105A40009F7090639C93808183FB882780F980FB03
:105A500093F99C9380818670997F982B9C939E707C
:105A6000983019F48C91877F8C939081A0E6B4E3F1
